{
  "contractName": "daotemplate",
  "abi": [
    {
      "inputs": [
        {
          "internalType": "string",
          "name": "_name",
          "type": "string"
        },
        {
          "internalType": "string",
          "name": "_symbol",
          "type": "string"
        },
        {
          "internalType": "uint256",
          "name": "_locktime",
          "type": "uint256"
        },
        {
          "internalType": "uint256",
          "name": "_quorum",
          "type": "uint256"
        },
        {
          "internalType": "uint256",
          "name": "_threshold",
          "type": "uint256"
        }
      ],
      "stateMutability": "nonpayable",
      "type": "constructor"
    },
    {
      "anonymous": false,
      "inputs": [
        {
          "indexed": true,
          "internalType": "address",
          "name": "owner",
          "type": "address"
        },
        {
          "indexed": true,
          "internalType": "address",
          "name": "spender",
          "type": "address"
        },
        {
          "indexed": false,
          "internalType": "uint256",
          "name": "value",
          "type": "uint256"
        }
      ],
      "name": "Approval",
      "type": "event"
    },
    {
      "anonymous": false,
      "inputs": [],
      "name": "ProposalAccepted",
      "type": "event"
    },
    {
      "anonymous": false,
      "inputs": [],
      "name": "ProposalFailed",
      "type": "event"
    },
    {
      "anonymous": false,
      "inputs": [
        {
          "indexed": false,
          "internalType": "uint256",
          "name": "newValue",
          "type": "uint256"
        }
      ],
      "name": "QuorumChanged",
      "type": "event"
    },
    {
      "anonymous": false,
      "inputs": [
        {
          "indexed": false,
          "internalType": "address",
          "name": "staker",
          "type": "address"
        },
        {
          "indexed": false,
          "internalType": "uint256",
          "name": "amount",
          "type": "uint256"
        }
      ],
      "name": "StakeSubmitted",
      "type": "event"
    },
    {
      "anonymous": false,
      "inputs": [
        {
          "indexed": true,
          "internalType": "address",
          "name": "from",
          "type": "address"
        },
        {
          "indexed": true,
          "internalType": "address",
          "name": "to",
          "type": "address"
        },
        {
          "indexed": false,
          "internalType": "uint256",
          "name": "value",
          "type": "uint256"
        }
      ],
      "name": "Transfer",
      "type": "event"
    },
    {
      "anonymous": false,
      "inputs": [
        {
          "indexed": false,
          "internalType": "uint256",
          "name": "newValue",
          "type": "uint256"
        }
      ],
      "name": "locktimeChanged",
      "type": "event"
    },
    {
      "anonymous": false,
      "inputs": [
        {
          "indexed": false,
          "internalType": "uint256",
          "name": "newValue",
          "type": "uint256"
        }
      ],
      "name": "thresholdChanged",
      "type": "event"
    },
    {
      "inputs": [
        {
          "internalType": "address",
          "name": "owner",
          "type": "address"
        },
        {
          "internalType": "address",
          "name": "spender",
          "type": "address"
        }
      ],
      "name": "allowance",
      "outputs": [
        {
          "internalType": "uint256",
          "name": "",
          "type": "uint256"
        }
      ],
      "stateMutability": "view",
      "type": "function"
    },
    {
      "inputs": [
        {
          "internalType": "address",
          "name": "spender",
          "type": "address"
        },
        {
          "internalType": "uint256",
          "name": "amount",
          "type": "uint256"
        }
      ],
      "name": "approve",
      "outputs": [
        {
          "internalType": "bool",
          "name": "",
          "type": "bool"
        }
      ],
      "stateMutability": "nonpayable",
      "type": "function"
    },
    {
      "inputs": [
        {
          "internalType": "address",
          "name": "account",
          "type": "address"
        }
      ],
      "name": "balanceOf",
      "outputs": [
        {
          "internalType": "uint256",
          "name": "",
          "type": "uint256"
        }
      ],
      "stateMutability": "view",
      "type": "function"
    },
    {
      "inputs": [
        {
          "internalType": "uint256",
          "name": "amount",
          "type": "uint256"
        }
      ],
      "name": "burn",
      "outputs": [],
      "stateMutability": "nonpayable",
      "type": "function"
    },
    {
      "inputs": [
        {
          "internalType": "address",
          "name": "account",
          "type": "address"
        },
        {
          "internalType": "uint256",
          "name": "amount",
          "type": "uint256"
        }
      ],
      "name": "burnFrom",
      "outputs": [],
      "stateMutability": "nonpayable",
      "type": "function"
    },
    {
      "inputs": [],
      "name": "decimals",
      "outputs": [
        {
          "internalType": "uint8",
          "name": "",
          "type": "uint8"
        }
      ],
      "stateMutability": "view",
      "type": "function"
    },
    {
      "inputs": [
        {
          "internalType": "address",
          "name": "spender",
          "type": "address"
        },
        {
          "internalType": "uint256",
          "name": "subtractedValue",
          "type": "uint256"
        }
      ],
      "name": "decreaseAllowance",
      "outputs": [
        {
          "internalType": "bool",
          "name": "",
          "type": "bool"
        }
      ],
      "stateMutability": "nonpayable",
      "type": "function"
    },
    {
      "inputs": [
        {
          "internalType": "address",
          "name": "spender",
          "type": "address"
        },
        {
          "internalType": "uint256",
          "name": "addedValue",
          "type": "uint256"
        }
      ],
      "name": "increaseAllowance",
      "outputs": [
        {
          "internalType": "bool",
          "name": "",
          "type": "bool"
        }
      ],
      "stateMutability": "nonpayable",
      "type": "function"
    },
    {
      "inputs": [],
      "name": "name",
      "outputs": [
        {
          "internalType": "string",
          "name": "",
          "type": "string"
        }
      ],
      "stateMutability": "view",
      "type": "function"
    },
    {
      "inputs": [],
      "name": "symbol",
      "outputs": [
        {
          "internalType": "string",
          "name": "",
          "type": "string"
        }
      ],
      "stateMutability": "view",
      "type": "function"
    },
    {
      "inputs": [],
      "name": "totalSupply",
      "outputs": [
        {
          "internalType": "uint256",
          "name": "",
          "type": "uint256"
        }
      ],
      "stateMutability": "view",
      "type": "function"
    },
    {
      "inputs": [
        {
          "internalType": "address",
          "name": "recipient",
          "type": "address"
        },
        {
          "internalType": "uint256",
          "name": "amount",
          "type": "uint256"
        }
      ],
      "name": "transfer",
      "outputs": [
        {
          "internalType": "bool",
          "name": "",
          "type": "bool"
        }
      ],
      "stateMutability": "nonpayable",
      "type": "function"
    },
    {
      "inputs": [
        {
          "internalType": "address",
          "name": "sender",
          "type": "address"
        },
        {
          "internalType": "address",
          "name": "recipient",
          "type": "address"
        },
        {
          "internalType": "uint256",
          "name": "amount",
          "type": "uint256"
        }
      ],
      "name": "transferFrom",
      "outputs": [
        {
          "internalType": "bool",
          "name": "",
          "type": "bool"
        }
      ],
      "stateMutability": "nonpayable",
      "type": "function"
    },
    {
      "inputs": [],
      "name": "stake",
      "outputs": [],
      "stateMutability": "payable",
      "type": "function"
    },
    {
      "inputs": [],
      "name": "withdraw",
      "outputs": [],
      "stateMutability": "nonpayable",
      "type": "function"
    },
    {
      "inputs": [
        {
          "internalType": "uint256",
          "name": "newQuorum",
          "type": "uint256"
        }
      ],
      "name": "proposeChangeQuorum",
      "outputs": [],
      "stateMutability": "nonpayable",
      "type": "function"
    },
    {
      "inputs": [
        {
          "internalType": "bool",
          "name": "vote",
          "type": "bool"
        }
      ],
      "name": "voteQuorum",
      "outputs": [],
      "stateMutability": "nonpayable",
      "type": "function"
    },
    {
      "inputs": [],
      "name": "resetQuorumVotes",
      "outputs": [],
      "stateMutability": "nonpayable",
      "type": "function"
    },
    {
      "inputs": [
        {
          "internalType": "uint256",
          "name": "newThreshold",
          "type": "uint256"
        }
      ],
      "name": "proposeChangeThreshold",
      "outputs": [],
      "stateMutability": "nonpayable",
      "type": "function"
    },
    {
      "inputs": [
        {
          "internalType": "bool",
          "name": "vote",
          "type": "bool"
        }
      ],
      "name": "voteThreshold",
      "outputs": [],
      "stateMutability": "nonpayable",
      "type": "function"
    },
    {
      "inputs": [],
      "name": "resetThresholdVotes",
      "outputs": [],
      "stateMutability": "nonpayable",
      "type": "function"
    },
    {
      "inputs": [
        {
          "internalType": "uint256",
          "name": "newLocktime",
          "type": "uint256"
        }
      ],
      "name": "proposeChangeLocktime",
      "outputs": [],
      "stateMutability": "nonpayable",
      "type": "function"
    },
    {
      "inputs": [
        {
          "internalType": "bool",
          "name": "vote",
          "type": "bool"
        }
      ],
      "name": "voteLocktime",
      "outputs": [],
      "stateMutability": "nonpayable",
      "type": "function"
    },
    {
      "inputs": [],
      "name": "resetLocktimeVotes",
      "outputs": [],
      "stateMutability": "nonpayable",
      "type": "function"
    }
  ],
  "bytecode": "0x60806040523480156200001157600080fd5b5060405162003c7938038062003c798339818101604052810190620000379190620001c6565b84848160039080519060200190620000519291906200008d565b5080600490805190602001906200006a9291906200008d565b505050816005819055508060098190555082600d8190555050505050506200040e565b8280546200009b9062000319565b90600052602060002090601f016020900481019282620000bf57600085556200010b565b82601f10620000da57805160ff19168380011785556200010b565b828001600101855582156200010b579182015b828111156200010a578251825591602001919060010190620000ed565b5b5090506200011a91906200011e565b5090565b5b80821115620001395760008160009055506001016200011f565b5090565b6000620001546200014e84620002a3565b6200027a565b9050828152602081018484840111156200016d57600080fd5b6200017a848285620002e3565b509392505050565b600082601f8301126200019457600080fd5b8151620001a68482602086016200013d565b91505092915050565b600081519050620001c081620003f4565b92915050565b600080600080600060a08688031215620001df57600080fd5b600086015167ffffffffffffffff811115620001fa57600080fd5b620002088882890162000182565b955050602086015167ffffffffffffffff8111156200022657600080fd5b620002348882890162000182565b94505060406200024788828901620001af565b93505060606200025a88828901620001af565b92505060806200026d88828901620001af565b9150509295509295909350565b60006200028662000299565b90506200029482826200034f565b919050565b6000604051905090565b600067ffffffffffffffff821115620002c157620002c0620003b4565b5b620002cc82620003e3565b9050602081019050919050565b6000819050919050565b60005b8381101562000303578082015181840152602081019050620002e6565b8381111562000313576000848401525b50505050565b600060028204905060018216806200033257607f821691505b6020821081141562000349576200034862000385565b5b50919050565b6200035a82620003e3565b810181811067ffffffffffffffff821117156200037c576200037b620003b4565b5b80604052505050565b7f4e487b7100000000000000000000000000000000000000000000000000000000600052602260045260246000fd5b7f4e487b7100000000000000000000000000000000000000000000000000000000600052604160045260246000fd5b6000601f19601f8301169050919050565b620003ff81620002d9565b81146200040b57600080fd5b50565b61385b806200041e6000396000f3fe60806040526004361061014b5760003560e01c80638644aadd116100b6578063a9a1591b1161006f578063a9a1591b14610481578063bdbc6a1b146104aa578063db9774ba146104c1578063dd62ed3e146104d8578063f25d9c2214610515578063fcf8ce981461053e5761014b565b80638644aadd1461036157806395d89b411461038a5780639c23fa61146103b5578063a10dafb6146103de578063a457c2d714610407578063a9059cbb146104445761014b565b8063395093511161010857806339509351146102745780633a4b66f1146102b15780633ccfd60b146102bb57806342966c68146102d257806370a08231146102fb57806379cc6790146103385761014b565b806306fdde031461015057806308a508c51461017b578063095ea7b3146101a457806318160ddd146101e157806323b872dd1461020c578063313ce56714610249575b600080fd5b34801561015c57600080fd5b50610165610555565b6040516101729190612c7e565b60405180910390f35b34801561018757600080fd5b506101a2600480360381019061019d919061289a565b6105e7565b005b3480156101b057600080fd5b506101cb60048036038101906101c69190612835565b610732565b6040516101d89190612c63565b60405180910390f35b3480156101ed57600080fd5b506101f6610750565b6040516102039190612f60565b60405180910390f35b34801561021857600080fd5b50610233600480360381019061022e91906127e6565b61075a565b6040516102409190612c63565b60405180910390f35b34801561025557600080fd5b5061025e610852565b60405161026b9190612f7b565b60405180910390f35b34801561028057600080fd5b5061029b60048036038101906102969190612835565b61085b565b6040516102a89190612c63565b60405180910390f35b6102b9610907565b005b3480156102c757600080fd5b506102d0610abd565b005b3480156102de57600080fd5b506102f960048036038101906102f4919061289a565b610c9e565b005b34801561030757600080fd5b50610322600480360381019061031d9190612781565b610cb2565b60405161032f9190612f60565b60405180910390f35b34801561034457600080fd5b5061035f600480360381019061035a9190612835565b610cfa565b005b34801561036d57600080fd5b506103886004803603810190610383919061289a565b610d75565b005b34801561039657600080fd5b5061039f610ec0565b6040516103ac9190612c7e565b60405180910390f35b3480156103c157600080fd5b506103dc60048036038101906103d7919061289a565b610f52565b005b3480156103ea57600080fd5b5061040560048036038101906104009190612871565b61109d565b005b34801561041357600080fd5b5061042e60048036038101906104299190612835565b6112d4565b60405161043b9190612c63565b60405180910390f35b34801561045057600080fd5b5061046b60048036038101906104669190612835565b6113bf565b6040516104789190612c63565b60405180910390f35b34801561048d57600080fd5b506104a860048036038101906104a39190612871565b6113dd565b005b3480156104b657600080fd5b506104bf61160c565b005b3480156104cd57600080fd5b506104d6611755565b005b3480156104e457600080fd5b506104ff60048036038101906104fa91906127aa565b61189e565b60405161050c9190612f60565b60405180910390f35b34801561052157600080fd5b5061053c60048036038101906105379190612871565b611925565b005b34801561054a57600080fd5b50610553611b54565b005b60606003805461056490613179565b80601f016020809104026020016040519081016040528092919081815260200182805461059090613179565b80156105dd5780601f106105b2576101008083540402835291602001916105dd565b820191906000526020600020905b8154815290600101906020018083116105c057829003601f168201915b5050505050905090565b60011515601260003373ffffffffffffffffffffffffffffffffffffffff1673ffffffffffffffffffffffffffffffffffffffff16815260200190815260200160002060009054906101000a900460ff1615151461067a576040517f08c379a000000000000000000000000000000000000000000000000000000000815260040161067190612d60565b60405180910390fd5b60001515601560000160029054906101000a900460ff161515146106d3576040517f08c379a00000000000000000000000000000000000000000000000000000000081526004016106ca90612ea0565b60405180910390fd5b6001601560000160026101000a81548160ff021916908315150217905550603c806018600d546107039190613039565b61070d9190613039565b6107179190613039565b426107229190612fb2565b600e8190555080600f8190555050565b600061074661073f611c9d565b8484611ca5565b6001905092915050565b6000600254905090565b6000610767848484611e70565b6000600160008673ffffffffffffffffffffffffffffffffffffffff1673ffffffffffffffffffffffffffffffffffffffff16815260200190815260200160002060006107b2611c9d565b73ffffffffffffffffffffffffffffffffffffffff1673ffffffffffffffffffffffffffffffffffffffff16815260200190815260200160002054905082811015610832576040517f08c379a000000000000000000000000000000000000000000000000000000000815260040161082990612de0565b60405180910390fd5b6108468561083e611c9d565b858403611ca5565b60019150509392505050565b60006012905090565b60006108fd610868611c9d565b848460016000610876611c9d565b73ffffffffffffffffffffffffffffffffffffffff1673ffffffffffffffffffffffffffffffffffffffff16815260200190815260200160002060008873ffffffffffffffffffffffffffffffffffffffff1673ffffffffffffffffffffffffffffffffffffffff168152602001908152602001600020546108f89190612fb2565b611ca5565b6001905092915050565b600954341461094b576040517f08c379a000000000000000000000000000000000000000000000000000000000815260040161094290612e60565b60405180910390fd5b60001515601260003373ffffffffffffffffffffffffffffffffffffffff1673ffffffffffffffffffffffffffffffffffffffff16815260200190815260200160002060009054906101000a900460ff161515146109de576040517f08c379a00000000000000000000000000000000000000000000000000000000081526004016109d590612ce0565b60405180910390fd5b6001601260003373ffffffffffffffffffffffffffffffffffffffff1673ffffffffffffffffffffffffffffffffffffffff16815260200190815260200160002060006101000a81548160ff02191690831515021790555034601360003373ffffffffffffffffffffffffffffffffffffffff1673ffffffffffffffffffffffffffffffffffffffff168152602001908152602001600020819055507f88ed452b64ba23b735663b61975adb903b1d8ca552a1ca87191e36dbbf12c7d53334604051610aab929190612c3a565b60405180910390a1610abb6120f1565b565b60011515601260003373ffffffffffffffffffffffffffffffffffffffff1673ffffffffffffffffffffffffffffffffffffffff16815260200190815260200160002060009054906101000a900460ff16151514610b50576040517f08c379a0000000000000000000000000000000000000000000000000000000008152600401610b4790612da0565b60405180910390fd5b610b5b3360016121a9565b6000601260003373ffffffffffffffffffffffffffffffffffffffff1673ffffffffffffffffffffffffffffffffffffffff16815260200190815260200160002060006101000a81548160ff0219169083151502179055506000601360003373ffffffffffffffffffffffffffffffffffffffff1673ffffffffffffffffffffffffffffffffffffffff1681526020019081526020016000205490506000601360003373ffffffffffffffffffffffffffffffffffffffff1673ffffffffffffffffffffffffffffffffffffffff1681526020019081526020016000208190555060116000815480929190610c4f9061314f565b91905055503373ffffffffffffffffffffffffffffffffffffffff166108fc829081150290604051600060405180830381858888f19350505050158015610c9a573d6000803e3d6000fd5b5050565b610caf610ca9611c9d565b826121a9565b50565b60008060008373ffffffffffffffffffffffffffffffffffffffff1673ffffffffffffffffffffffffffffffffffffffff168152602001908152602001600020549050919050565b6000610d0d83610d08611c9d565b61189e565b905081811015610d52576040517f08c379a0000000000000000000000000000000000000000000000000000000008152600401610d4990612e00565b60405180910390fd5b610d6683610d5e611c9d565b848403611ca5565b610d7083836121a9565b505050565b60011515601260003373ffffffffffffffffffffffffffffffffffffffff1673ffffffffffffffffffffffffffffffffffffffff16815260200190815260200160002060009054906101000a900460ff16151514610e08576040517f08c379a0000000000000000000000000000000000000000000000000000000008152600401610dff90612d60565b60405180910390fd5b60001515601560000160009054906101000a900460ff16151514610e61576040517f08c379a0000000000000000000000000000000000000000000000000000000008152600401610e5890612d40565b60405180910390fd5b6001601560000160006101000a81548160ff021916908315150217905550603c806018600d54610e919190613039565b610e9b9190613039565b610ea59190613039565b42610eb09190612fb2565b6006819055508060078190555050565b606060048054610ecf90613179565b80601f0160208091040260200160405190810160405280929190818152602001828054610efb90613179565b8015610f485780601f10610f1d57610100808354040283529160200191610f48565b820191906000526020600020905b815481529060010190602001808311610f2b57829003601f168201915b5050505050905090565b60011515601260003373ffffffffffffffffffffffffffffffffffffffff1673ffffffffffffffffffffffffffffffffffffffff16815260200190815260200160002060009054906101000a900460ff16151514610fe5576040517f08c379a0000000000000000000000000000000000000000000000000000000008152600401610fdc90612d60565b60405180910390fd5b60001515601560000160019054906101000a900460ff1615151461103e576040517f08c379a000000000000000000000000000000000000000000000000000000000815260040161103590612e20565b60405180910390fd5b6001601560000160016101000a81548160ff021916908315150217905550603c806018600d5461106e9190613039565b6110789190613039565b6110829190613039565b4261108d9190612fb2565b600a8190555080600b8190555050565b60011515601260003373ffffffffffffffffffffffffffffffffffffffff1673ffffffffffffffffffffffffffffffffffffffff16815260200190815260200160002060009054906101000a900460ff16151514611130576040517f08c379a000000000000000000000000000000000000000000000000000000000815260040161112790612d60565b60405180910390fd5b60011515601560000160009054906101000a900460ff16151514611189576040517f08c379a000000000000000000000000000000000000000000000000000000000815260040161118090612d00565b60405180910390fd5b60001515601460003373ffffffffffffffffffffffffffffffffffffffff1673ffffffffffffffffffffffffffffffffffffffff16815260200190815260200160002060000160009054906101000a900460ff1615151461121f576040517f08c379a000000000000000000000000000000000000000000000000000000000815260040161121690612ee0565b60405180910390fd5b6001601460003373ffffffffffffffffffffffffffffffffffffffff1673ffffffffffffffffffffffffffffffffffffffff16815260200190815260200160002060000160006101000a81548160ff0219169083151502179055506006544210156112ab576001151581151514156112aa57600860008154809291906112a4906131ab565b91905055505b5b6000601560000160006101000a81548160ff0219169083151502179055506112d1612380565b50565b600080600160006112e3611c9d565b73ffffffffffffffffffffffffffffffffffffffff1673ffffffffffffffffffffffffffffffffffffffff16815260200190815260200160002060008573ffffffffffffffffffffffffffffffffffffffff1673ffffffffffffffffffffffffffffffffffffffff168152602001908152602001600020549050828110156113a0576040517f08c379a000000000000000000000000000000000000000000000000000000000815260040161139790612f20565b60405180910390fd5b6113b46113ab611c9d565b85858403611ca5565b600191505092915050565b60006113d36113cc611c9d565b8484611e70565b6001905092915050565b60011515601260003373ffffffffffffffffffffffffffffffffffffffff1673ffffffffffffffffffffffffffffffffffffffff16815260200190815260200160002060009054906101000a900460ff16151514611470576040517f08c379a000000000000000000000000000000000000000000000000000000000815260040161146790612d60565b60405180910390fd5b60011515601560000160029054906101000a900460ff161515146114c9576040517f08c379a00000000000000000000000000000000000000000000000000000000081526004016114c090612f00565b60405180910390fd5b60001515601460003373ffffffffffffffffffffffffffffffffffffffff1673ffffffffffffffffffffffffffffffffffffffff16815260200190815260200160002060000160029054906101000a900460ff1615151461155f576040517f08c379a000000000000000000000000000000000000000000000000000000000815260040161155690612ee0565b60405180910390fd5b60011515601460003373ffffffffffffffffffffffffffffffffffffffff1673ffffffffffffffffffffffffffffffffffffffff16815260200190815260200160002060000160029054906101000a90505050600e544210156115e3576001151581151514156115e257601060008154809291906115dc906131ab565b91905055505b5b6000601560000160026101000a81548160ff021916908315150217905550611609612448565b50565b60011515601260003373ffffffffffffffffffffffffffffffffffffffff1673ffffffffffffffffffffffffffffffffffffffff16815260200190815260200160002060009054906101000a900460ff1615151461169f576040517f08c379a000000000000000000000000000000000000000000000000000000000815260040161169690612d60565b60405180910390fd5b60001515601560000160009054906101000a900460ff161515146116f8576040517f08c379a00000000000000000000000000000000000000000000000000000000081526004016116ef90612d40565b60405180910390fd5b6000601460003373ffffffffffffffffffffffffffffffffffffffff1673ffffffffffffffffffffffffffffffffffffffff16815260200190815260200160002060000160006101000a81548160ff021916908315150217905550565b60011515601260003373ffffffffffffffffffffffffffffffffffffffff1673ffffffffffffffffffffffffffffffffffffffff16815260200190815260200160002060009054906101000a900460ff161515146117e8576040517f08c379a00000000000000000000000000000000000000000000000000000000081526004016117df90612d60565b60405180910390fd5b60001515601560000160019054906101000a900460ff16151514611841576040517f08c379a000000000000000000000000000000000000000000000000000000000815260040161183890612e20565b60405180910390fd5b6000601460003373ffffffffffffffffffffffffffffffffffffffff1673ffffffffffffffffffffffffffffffffffffffff16815260200190815260200160002060000160016101000a81548160ff021916908315150217905550565b6000600160008473ffffffffffffffffffffffffffffffffffffffff1673ffffffffffffffffffffffffffffffffffffffff16815260200190815260200160002060008373ffffffffffffffffffffffffffffffffffffffff1673ffffffffffffffffffffffffffffffffffffffff16815260200190815260200160002054905092915050565b60011515601260003373ffffffffffffffffffffffffffffffffffffffff1673ffffffffffffffffffffffffffffffffffffffff16815260200190815260200160002060009054906101000a900460ff161515146119b8576040517f08c379a00000000000000000000000000000000000000000000000000000000081526004016119af90612d60565b60405180910390fd5b60011515601560000160019054906101000a900460ff16151514611a11576040517f08c379a0000000000000000000000000000000000000000000000000000000008152600401611a0890612dc0565b60405180910390fd5b60001515601460003373ffffffffffffffffffffffffffffffffffffffff1673ffffffffffffffffffffffffffffffffffffffff16815260200190815260200160002060000160019054906101000a900460ff16151514611aa7576040517f08c379a0000000000000000000000000000000000000000000000000000000008152600401611a9e90612ee0565b60405180910390fd5b60011515601460003373ffffffffffffffffffffffffffffffffffffffff1673ffffffffffffffffffffffffffffffffffffffff16815260200190815260200160002060000160019054906101000a90505050600a54421015611b2b57600115158115151415611b2a57600c6000815480929190611b24906131ab565b91905055505b5b6000601560000160016101000a81548160ff021916908315150217905550611b51612510565b50565b60011515601260003373ffffffffffffffffffffffffffffffffffffffff1673ffffffffffffffffffffffffffffffffffffffff16815260200190815260200160002060009054906101000a900460ff16151514611be7576040517f08c379a0000000000000000000000000000000000000000000000000000000008152600401611bde90612d60565b60405180910390fd5b60001515601560000160029054906101000a900460ff16151514611c40576040517f08c379a0000000000000000000000000000000000000000000000000000000008152600401611c3790612ea0565b60405180910390fd5b6000601460003373ffffffffffffffffffffffffffffffffffffffff1673ffffffffffffffffffffffffffffffffffffffff16815260200190815260200160002060000160026101000a81548160ff021916908315150217905550565b600033905090565b600073ffffffffffffffffffffffffffffffffffffffff168373ffffffffffffffffffffffffffffffffffffffff161415611d15576040517f08c379a0000000000000000000000000000000000000000000000000000000008152600401611d0c90612ec0565b60405180910390fd5b600073ffffffffffffffffffffffffffffffffffffffff168273ffffffffffffffffffffffffffffffffffffffff161415611d85576040517f08c379a0000000000000000000000000000000000000000000000000000000008152600401611d7c90612d20565b60405180910390fd5b80600160008573ffffffffffffffffffffffffffffffffffffffff1673ffffffffffffffffffffffffffffffffffffffff16815260200190815260200160002060008473ffffffffffffffffffffffffffffffffffffffff1673ffffffffffffffffffffffffffffffffffffffff168152602001908152602001600020819055508173ffffffffffffffffffffffffffffffffffffffff168373ffffffffffffffffffffffffffffffffffffffff167f8c5be1e5ebec7d5bd14f71427d1e84f3dd0314c0f7b2291e5b200ac8c7c3b92583604051611e639190612f60565b60405180910390a3505050565b600073ffffffffffffffffffffffffffffffffffffffff168373ffffffffffffffffffffffffffffffffffffffff161415611ee0576040517f08c379a0000000000000000000000000000000000000000000000000000000008152600401611ed790612e80565b60405180910390fd5b600073ffffffffffffffffffffffffffffffffffffffff168273ffffffffffffffffffffffffffffffffffffffff161415611f50576040517f08c379a0000000000000000000000000000000000000000000000000000000008152600401611f4790612ca0565b60405180910390fd5b611f5b8383836125d8565b60008060008573ffffffffffffffffffffffffffffffffffffffff1673ffffffffffffffffffffffffffffffffffffffff16815260200190815260200160002054905081811015611fe1576040517f08c379a0000000000000000000000000000000000000000000000000000000008152600401611fd890612d80565b60405180910390fd5b8181036000808673ffffffffffffffffffffffffffffffffffffffff1673ffffffffffffffffffffffffffffffffffffffff16815260200190815260200160002081905550816000808573ffffffffffffffffffffffffffffffffffffffff1673ffffffffffffffffffffffffffffffffffffffff16815260200190815260200160002060008282546120749190612fb2565b925050819055508273ffffffffffffffffffffffffffffffffffffffff168473ffffffffffffffffffffffffffffffffffffffff167fddf252ad1be2c89b69c2b068fc378daa952ba7f163c4a11628f55a4df523b3ef846040516120d89190612f60565b60405180910390a36120eb8484846125dd565b50505050565b60011515601260003373ffffffffffffffffffffffffffffffffffffffff1673ffffffffffffffffffffffffffffffffffffffff16815260200190815260200160002060009054906101000a900460ff16151514612184576040517f08c379a000000000000000000000000000000000000000000000000000000000815260040161217b90612da0565b60405180910390fd5b61218f3360016125e2565b601160008154809291906121a2906131ab565b9190505550565b600073ffffffffffffffffffffffffffffffffffffffff168273ffffffffffffffffffffffffffffffffffffffff161415612219576040517f08c379a000000000000000000000000000000000000000000000000000000000815260040161221090612e40565b60405180910390fd5b612225826000836125d8565b60008060008473ffffffffffffffffffffffffffffffffffffffff1673ffffffffffffffffffffffffffffffffffffffff168152602001908152602001600020549050818110156122ab576040517f08c379a00000000000000000000000000000000000000000000000000000000081526004016122a290612cc0565b60405180910390fd5b8181036000808573ffffffffffffffffffffffffffffffffffffffff1673ffffffffffffffffffffffffffffffffffffffff1681526020019081526020016000208190555081600260008282546123029190613093565b92505081905550600073ffffffffffffffffffffffffffffffffffffffff168373ffffffffffffffffffffffffffffffffffffffff167fddf252ad1be2c89b69c2b068fc378daa952ba7f163c4a11628f55a4df523b3ef846040516123679190612f60565b60405180910390a361237b836000846125dd565b505050565b60006011546008546123929190613008565b905060646005546123a39190613008565b811115612419576007546005819055507fbf9067c9d0ba76fdfcb416bccec45fe88cda5437e5220b5a31d49b89d909567b60405160405180910390a17f027863d12a407097e086a48e36475bfc859d0b200b7e6f65b5fd3b218e46632e6007546040516124109190612f60565b60405180910390a15b7fbb31b06340d8bcc6ed1aa7c92a81f66d8661b6a4f888c222663acebca124d4dd60405160405180910390a150565b600060115460105461245a9190613008565b9050606460055461246b9190613008565b8111156124e157600f54600d819055507fbf9067c9d0ba76fdfcb416bccec45fe88cda5437e5220b5a31d49b89d909567b60405160405180910390a17f7202f735a98a16c8379d6522bd2e99c266f62bced53281d80313897dec30c0f1600f546040516124d89190612f60565b60405180910390a15b7fbb31b06340d8bcc6ed1aa7c92a81f66d8661b6a4f888c222663acebca124d4dd60405160405180910390a150565b6000601154600c546125229190613008565b905060646005546125339190613008565b8111156125a957600b546009819055507fbf9067c9d0ba76fdfcb416bccec45fe88cda5437e5220b5a31d49b89d909567b60405160405180910390a17f4cff37431b2c9b4424449ce5c9ec76416bed14b896a49c58b3abe257b56b5582600b546040516125a09190612f60565b60405180910390a15b7fbb31b06340d8bcc6ed1aa7c92a81f66d8661b6a4f888c222663acebca124d4dd60405160405180910390a150565b505050565b505050565b600073ffffffffffffffffffffffffffffffffffffffff168273ffffffffffffffffffffffffffffffffffffffff161415612652576040517f08c379a000000000000000000000000000000000000000000000000000000000815260040161264990612f40565b60405180910390fd5b61265e600083836125d8565b80600260008282546126709190612fb2565b92505081905550806000808473ffffffffffffffffffffffffffffffffffffffff1673ffffffffffffffffffffffffffffffffffffffff16815260200190815260200160002060008282546126c59190612fb2565b925050819055508173ffffffffffffffffffffffffffffffffffffffff16600073ffffffffffffffffffffffffffffffffffffffff167fddf252ad1be2c89b69c2b068fc378daa952ba7f163c4a11628f55a4df523b3ef8360405161272a9190612f60565b60405180910390a361273e600083836125dd565b5050565b600081359050612751816137e0565b92915050565b600081359050612766816137f7565b92915050565b60008135905061277b8161380e565b92915050565b60006020828403121561279357600080fd5b60006127a184828501612742565b91505092915050565b600080604083850312156127bd57600080fd5b60006127cb85828601612742565b92505060206127dc85828601612742565b9150509250929050565b6000806000606084860312156127fb57600080fd5b600061280986828701612742565b935050602061281a86828701612742565b925050604061282b8682870161276c565b9150509250925092565b6000806040838503121561284857600080fd5b600061285685828601612742565b92505060206128678582860161276c565b9150509250929050565b60006020828403121561288357600080fd5b600061289184828501612757565b91505092915050565b6000602082840312156128ac57600080fd5b60006128ba8482850161276c565b91505092915050565b6128cc816130c7565b82525050565b6128db816130d9565b82525050565b60006128ec82612f96565b6128f68185612fa1565b935061290681856020860161311c565b61290f81613281565b840191505092915050565b6000612927602383612fa1565b915061293282613292565b604082019050919050565b600061294a602283612fa1565b9150612955826132e1565b604082019050919050565b600061296d601283612fa1565b915061297882613330565b602082019050919050565b6000612990601e83612fa1565b915061299b82613359565b602082019050919050565b60006129b3602283612fa1565b91506129be82613382565b604082019050919050565b60006129d6601b83612fa1565b91506129e1826133d1565b602082019050919050565b60006129f9602183612fa1565b9150612a04826133fa565b604082019050919050565b6000612a1c602683612fa1565b9150612a2782613449565b604082019050919050565b6000612a3f600e83612fa1565b9150612a4a82613498565b602082019050919050565b6000612a62602183612fa1565b9150612a6d826134c1565b604082019050919050565b6000612a85602883612fa1565b9150612a9082613510565b604082019050919050565b6000612aa8602483612fa1565b9150612ab38261355f565b604082019050919050565b6000612acb601e83612fa1565b9150612ad6826135ae565b602082019050919050565b6000612aee602183612fa1565b9150612af9826135d7565b604082019050919050565b6000612b11601983612fa1565b9150612b1c82613626565b602082019050919050565b6000612b34602583612fa1565b9150612b3f8261364f565b604082019050919050565b6000612b57601d83612fa1565b9150612b628261369e565b602082019050919050565b6000612b7a602483612fa1565b9150612b85826136c7565b604082019050919050565b6000612b9d601183612fa1565b9150612ba882613716565b602082019050919050565b6000612bc0602083612fa1565b9150612bcb8261373f565b602082019050919050565b6000612be3602583612fa1565b9150612bee82613768565b604082019050919050565b6000612c06601f83612fa1565b9150612c11826137b7565b602082019050919050565b612c2581613105565b82525050565b612c348161310f565b82525050565b6000604082019050612c4f60008301856128c3565b612c5c6020830184612c1c565b9392505050565b6000602082019050612c7860008301846128d2565b92915050565b60006020820190508181036000830152612c9881846128e1565b905092915050565b60006020820190508181036000830152612cb98161291a565b9050919050565b60006020820190508181036000830152612cd98161293d565b9050919050565b60006020820190508181036000830152612cf981612960565b9050919050565b60006020820190508181036000830152612d1981612983565b9050919050565b60006020820190508181036000830152612d39816129a6565b9050919050565b60006020820190508181036000830152612d59816129c9565b9050919050565b60006020820190508181036000830152612d79816129ec565b9050919050565b60006020820190508181036000830152612d9981612a0f565b9050919050565b60006020820190508181036000830152612db981612a32565b9050919050565b60006020820190508181036000830152612dd981612a55565b9050919050565b60006020820190508181036000830152612df981612a78565b9050919050565b60006020820190508181036000830152612e1981612a9b565b9050919050565b60006020820190508181036000830152612e3981612abe565b9050919050565b60006020820190508181036000830152612e5981612ae1565b9050919050565b60006020820190508181036000830152612e7981612b04565b9050919050565b60006020820190508181036000830152612e9981612b27565b9050919050565b60006020820190508181036000830152612eb981612b4a565b9050919050565b60006020820190508181036000830152612ed981612b6d565b9050919050565b60006020820190508181036000830152612ef981612b90565b9050919050565b60006020820190508181036000830152612f1981612bb3565b9050919050565b60006020820190508181036000830152612f3981612bd6565b9050919050565b60006020820190508181036000830152612f5981612bf9565b9050919050565b6000602082019050612f756000830184612c1c565b92915050565b6000602082019050612f906000830184612c2b565b92915050565b600081519050919050565b600082825260208201905092915050565b6000612fbd82613105565b9150612fc883613105565b9250827fffffffffffffffffffffffffffffffffffffffffffffffffffffffffffffffff03821115612ffd57612ffc6131f4565b5b828201905092915050565b600061301382613105565b915061301e83613105565b92508261302e5761302d613223565b5b828204905092915050565b600061304482613105565b915061304f83613105565b9250817fffffffffffffffffffffffffffffffffffffffffffffffffffffffffffffffff0483118215151615613088576130876131f4565b5b828202905092915050565b600061309e82613105565b91506130a983613105565b9250828210156130bc576130bb6131f4565b5b828203905092915050565b60006130d2826130e5565b9050919050565b60008115159050919050565b600073ffffffffffffffffffffffffffffffffffffffff82169050919050565b6000819050919050565b600060ff82169050919050565b60005b8381101561313a57808201518184015260208101905061311f565b83811115613149576000848401525b50505050565b600061315a82613105565b9150600082141561316e5761316d6131f4565b5b600182039050919050565b6000600282049050600182168061319157607f821691505b602082108114156131a5576131a4613252565b5b50919050565b60006131b682613105565b91507fffffffffffffffffffffffffffffffffffffffffffffffffffffffffffffffff8214156131e9576131e86131f4565b5b600182019050919050565b7f4e487b7100000000000000000000000000000000000000000000000000000000600052601160045260246000fd5b7f4e487b7100000000000000000000000000000000000000000000000000000000600052601260045260246000fd5b7f4e487b7100000000000000000000000000000000000000000000000000000000600052602260045260246000fd5b6000601f19601f8301169050919050565b7f45524332303a207472616e7366657220746f20746865207a65726f206164647260008201527f6573730000000000000000000000000000000000000000000000000000000000602082015250565b7f45524332303a206275726e20616d6f756e7420657863656564732062616c616e60008201527f6365000000000000000000000000000000000000000000000000000000000000602082015250565b7f68617320616c7265616479207374616b65640000000000000000000000000000600082015250565b7f6e6f2071756f72756d2070726f706f73616c20696e2070726f67726573730000600082015250565b7f45524332303a20617070726f766520746f20746865207a65726f20616464726560008201527f7373000000000000000000000000000000000000000000000000000000000000602082015250565b7f71756f72756d2070726f706f73616c20696e2070726f67726573730000000000600082015250565b7f6e6f7420612064616f204d656d6265722028686173206e6f74207374616b656460008201527f2900000000000000000000000000000000000000000000000000000000000000602082015250565b7f45524332303a207472616e7366657220616d6f756e742065786365656473206260008201527f616c616e63650000000000000000000000000000000000000000000000000000602082015250565b7f686173206e6f74207374616b6564000000000000000000000000000000000000600082015250565b7f6e6f207468726573686f6c642070726f706f73616c20696e2070726f6772657360008201527f7300000000000000000000000000000000000000000000000000000000000000602082015250565b7f45524332303a207472616e7366657220616d6f756e742065786365656473206160008201527f6c6c6f77616e6365000000000000000000000000000000000000000000000000602082015250565b7f45524332303a206275726e20616d6f756e74206578636565647320616c6c6f7760008201527f616e636500000000000000000000000000000000000000000000000000000000602082015250565b7f7468726573686f6c642070726f706f73616c20696e2070726f67726573730000600082015250565b7f45524332303a206275726e2066726f6d20746865207a65726f2061646472657360008201527f7300000000000000000000000000000000000000000000000000000000000000602082015250565b7f7374616b6520726571756972656d656e74206e6f74206d657400000000000000600082015250565b7f45524332303a207472616e736665722066726f6d20746865207a65726f20616460008201527f6472657373000000000000000000000000000000000000000000000000000000602082015250565b7f6c6f636b74696d652070726f706f73616c20696e2070726f6772657373000000600082015250565b7f45524332303a20617070726f76652066726f6d20746865207a65726f2061646460008201527f7265737300000000000000000000000000000000000000000000000000000000602082015250565b7f68617320616c726561647920766f746564000000000000000000000000000000600082015250565b7f6e6f206c6f636b74696d652070726f706f73616c20696e2070726f6772657373600082015250565b7f45524332303a2064656372656173656420616c6c6f77616e63652062656c6f7760008201527f207a65726f000000000000000000000000000000000000000000000000000000602082015250565b7f45524332303a206d696e7420746f20746865207a65726f206164647265737300600082015250565b6137e9816130c7565b81146137f457600080fd5b50565b613800816130d9565b811461380b57600080fd5b50565b61381781613105565b811461382257600080fd5b5056fea26469706673582212200d63d0ba054819e00f733fd2f3e59207100d49c4264bc23f05aa6f36a0efcefc64736f6c63430008040033",
  "immutableReferences": {},
  "source": "pragma solidity ^0.8.4;\n\n// SPDX-License-Identifier: MIT\n\nimport \"./openzeppelin/contracts/token/ERC20/ERC20.sol\";\nimport \"./openzeppelin/contracts/token/ERC20/extensions/ERC20Burnable.sol\";\nimport \"./openzeppelin/contracts/token/ERC20/extensions/ERC20Capped.sol\";\n\n\ncontract daotemplate is ERC20, ERC20Burnable {\n    uint quorum;\n    uint quorumend;\n    uint ProposedQuorum;\n    uint quorumvotes;\n\n    uint threshold;\n    uint thresholdend;\n    uint proposedThreshold;\n    uint thresholdvotes;\n\n    uint locktime; // days but block.timestamp is in seconds\n    uint locktimeend;\n    uint proposedLocktime;\n    uint locktimevotes;\n\n    uint totalmembers;\n\n    mapping (address => bool) staked;\n    mapping (address => uint) amountstaked;\n    mapping (address => Voter) BallotTracker;\n\n    event StakeSubmitted(address staker, uint amount); \n    event ProposalAccepted();\n    event ProposalFailed();\n    event QuorumChanged(uint newValue);\n    event thresholdChanged(uint newValue);\n    event locktimeChanged(uint newValue);\n\n    struct Proposals {\n       bool quorum;\n       bool threshold;\n       bool locktime;\n    }\n    struct Voter {\n       bool quorum;\n       bool threshold;\n       bool locktime;\n    }\n\n    Proposals private overview; // keeps track of what proposals are in progress\n\n    constructor(string memory _name, string memory _symbol, uint _locktime, uint _quorum, uint _threshold) \n        ERC20(_name, _symbol) {\n        // ERC20.decimals(0); mint by units of 1\n        quorum = _quorum;\n        threshold = _threshold;\n        locktime = _locktime;\n    }\n\n    function stake() payable external {\n        require(msg.value == threshold, 'stake requirement not met');\n        // will this work? 10 AVAX or ETHER recognized just by int?\n        require(staked[msg.sender] == false, 'has already staked');\n        staked[msg.sender] = true;\n        amountstaked[msg.sender] = msg.value;\n        emit StakeSubmitted(msg.sender, msg.value);\n        mint();\n    }\n\n    function mint() internal {\n        require(staked[msg.sender] == true, 'has not staked');\n        _mint(msg.sender, 1);\n        totalmembers++;\n    }\n\n    function withdraw() external {\n        require(staked[msg.sender] == true, 'has not staked');\n        _burn(msg.sender, 1);\n        staked[msg.sender] = false;\n        uint transfervalue = amountstaked[msg.sender];\n        amountstaked[msg.sender] = 0;\n        totalmembers--;\n        payable(msg.sender).transfer(transfervalue);\n    }\n\n    modifier DaoMember {\n        require(staked[msg.sender] == true, 'not a dao Member (has not staked)');\n        _;\n    }\n\n    function proposeChangeQuorum(uint newQuorum) external DaoMember {\n        require(overview.quorum == false, 'quorum proposal in progress');\n        overview.quorum = true;\n        quorumend = block.timestamp + (locktime * 24 * 60 * 60);\n        ProposedQuorum = newQuorum;\n    }\n\n    function voteQuorum(bool vote) external DaoMember {\n        require(overview.quorum == true, 'no quorum proposal in progress');\n        require(BallotTracker[msg.sender].quorum == false, 'has already voted');\n        BallotTracker[msg.sender].quorum = true;\n        if (block.timestamp < quorumend) {\n            if (vote == true) {\n                quorumvotes++;\n            }\n        }\n        overview.quorum = false;\n        decideQuorum();\n    }\n    function decideQuorum() internal {\n        uint decimalfor = quorumvotes / totalmembers;\n        if (decimalfor > (quorum / 100)) {\n            quorum = ProposedQuorum;\n            emit ProposalAccepted();\n            emit QuorumChanged((ProposedQuorum));\n        }\n        emit ProposalFailed();\n    }\n\n    function resetQuorumVotes() external DaoMember {\n        require(overview.quorum == false, 'quorum proposal in progress');\n        BallotTracker[msg.sender].quorum = false;\n    }\n\n    function proposeChangeThreshold(uint newThreshold) external DaoMember {\n        require(overview.threshold == false, 'threshold proposal in progress');\n        overview.threshold = true;\n        thresholdend = block.timestamp + (locktime * 24 * 60 * 60);\n        proposedThreshold = newThreshold;\n    }\n\n    function voteThreshold(bool vote) external DaoMember {\n        require(overview.threshold == true, 'no threshold proposal in progress');\n        require(BallotTracker[msg.sender].threshold == false, 'has already voted');\n        BallotTracker[msg.sender].threshold == true;\n        if (block.timestamp < thresholdend) {\n            if (vote == true) {\n                thresholdvotes++;\n            }\n        }\n        overview.threshold = false;\n        decideThreshold();\n    }\n\n    function decideThreshold() internal {\n        uint decimalfor = thresholdvotes / totalmembers;\n        if (decimalfor > (quorum / 100)) {\n            threshold = proposedThreshold;\n            emit ProposalAccepted();\n            emit thresholdChanged(proposedThreshold);\n        }\n        emit ProposalFailed();\n    }\n\n    function resetThresholdVotes() external DaoMember {\n        require(overview.threshold == false, 'threshold proposal in progress');\n        BallotTracker[msg.sender].threshold = false;\n    }\n\n    function proposeChangeLocktime(uint newLocktime) external DaoMember {\n        require(overview.locktime == false, 'locktime proposal in progress');\n        overview.locktime = true;\n        locktimeend = block.timestamp + (locktime * 24 * 60 * 60);\n        proposedLocktime = newLocktime;\n    }\n\n    function voteLocktime(bool vote) external DaoMember {\n        require(overview.locktime == true, 'no locktime proposal in progress');\n        require(BallotTracker[msg.sender].locktime == false, 'has already voted');\n        BallotTracker[msg.sender].locktime == true;\n        if (block.timestamp < locktimeend) {\n            if (vote == true) {\n                locktimevotes++;\n            }\n        }\n        overview.locktime = false;\n        decideLocktime();\n    }\n\n    function decideLocktime() internal {\n        uint decimalfor = locktimevotes / totalmembers;\n        if (decimalfor > (quorum / 100)) {\n            locktime = proposedLocktime;\n            emit ProposalAccepted();\n            emit locktimeChanged(proposedLocktime);\n        }\n        emit ProposalFailed();\n    }\n    \n    function resetLocktimeVotes() external DaoMember {\n        require(overview.locktime == false, 'locktime proposal in progress');\n        BallotTracker[msg.sender].locktime = false;\n    }\n}\n\n",
  "sourcePath": "/Users/arnavshah/Desktop/daotemp/contracts/daotemplate.sol",
  "compiler": {
    "name": "solc",
    "version": "0.8.4+commit.c7e474f2.Emscripten.clang"
  },
  "schemaVersion": "3.4.3",
  "updatedAt": "2021-09-07T02:43:44.569Z",
  "devdoc": {
    "kind": "dev",
    "methods": {
      "allowance(address,address)": {
        "details": "See {IERC20-allowance}."
      },
      "approve(address,uint256)": {
        "details": "See {IERC20-approve}. Requirements: - `spender` cannot be the zero address."
      },
      "balanceOf(address)": {
        "details": "See {IERC20-balanceOf}."
      },
      "burn(uint256)": {
        "details": "Destroys `amount` tokens from the caller. See {ERC20-_burn}."
      },
      "burnFrom(address,uint256)": {
        "details": "Destroys `amount` tokens from `account`, deducting from the caller's allowance. See {ERC20-_burn} and {ERC20-allowance}. Requirements: - the caller must have allowance for ``accounts``'s tokens of at least `amount`."
      },
      "decimals()": {
        "details": "Returns the number of decimals used to get its user representation. For example, if `decimals` equals `2`, a balance of `505` tokens should be displayed to a user as `5.05` (`505 / 10 ** 2`). Tokens usually opt for a value of 18, imitating the relationship between Ether and Wei. This is the value {ERC20} uses, unless this function is overridden; NOTE: This information is only used for _display_ purposes: it in no way affects any of the arithmetic of the contract, including {IERC20-balanceOf} and {IERC20-transfer}."
      },
      "decreaseAllowance(address,uint256)": {
        "details": "Atomically decreases the allowance granted to `spender` by the caller. This is an alternative to {approve} that can be used as a mitigation for problems described in {IERC20-approve}. Emits an {Approval} event indicating the updated allowance. Requirements: - `spender` cannot be the zero address. - `spender` must have allowance for the caller of at least `subtractedValue`."
      },
      "increaseAllowance(address,uint256)": {
        "details": "Atomically increases the allowance granted to `spender` by the caller. This is an alternative to {approve} that can be used as a mitigation for problems described in {IERC20-approve}. Emits an {Approval} event indicating the updated allowance. Requirements: - `spender` cannot be the zero address."
      },
      "name()": {
        "details": "Returns the name of the token."
      },
      "symbol()": {
        "details": "Returns the symbol of the token, usually a shorter version of the name."
      },
      "totalSupply()": {
        "details": "See {IERC20-totalSupply}."
      },
      "transfer(address,uint256)": {
        "details": "See {IERC20-transfer}. Requirements: - `recipient` cannot be the zero address. - the caller must have a balance of at least `amount`."
      },
      "transferFrom(address,address,uint256)": {
        "details": "See {IERC20-transferFrom}. Emits an {Approval} event indicating the updated allowance. This is not required by the EIP. See the note at the beginning of {ERC20}. Requirements: - `sender` and `recipient` cannot be the zero address. - `sender` must have a balance of at least `amount`. - the caller must have allowance for ``sender``'s tokens of at least `amount`."
      }
    },
    "version": 1
  },
  "userdoc": {
    "kind": "user",
    "methods": {},
    "version": 1
  }
}