{
  "contractName": "MinimalForwarder",
  "abi": [
    {
      "inputs": [],
      "stateMutability": "nonpayable",
      "type": "constructor"
    },
    {
      "inputs": [
        {
          "internalType": "address",
          "name": "from",
          "type": "address"
        }
      ],
      "name": "getNonce",
      "outputs": [
        {
          "internalType": "uint256",
          "name": "",
          "type": "uint256"
        }
      ],
      "stateMutability": "view",
      "type": "function"
    },
    {
      "inputs": [
        {
          "components": [
            {
              "internalType": "address",
              "name": "from",
              "type": "address"
            },
            {
              "internalType": "address",
              "name": "to",
              "type": "address"
            },
            {
              "internalType": "uint256",
              "name": "value",
              "type": "uint256"
            },
            {
              "internalType": "uint256",
              "name": "gas",
              "type": "uint256"
            },
            {
              "internalType": "uint256",
              "name": "nonce",
              "type": "uint256"
            },
            {
              "internalType": "bytes",
              "name": "data",
              "type": "bytes"
            }
          ],
          "internalType": "struct MinimalForwarder.ForwardRequest",
          "name": "req",
          "type": "tuple"
        },
        {
          "internalType": "bytes",
          "name": "signature",
          "type": "bytes"
        }
      ],
      "name": "verify",
      "outputs": [
        {
          "internalType": "bool",
          "name": "",
          "type": "bool"
        }
      ],
      "stateMutability": "view",
      "type": "function"
    },
    {
      "inputs": [
        {
          "components": [
            {
              "internalType": "address",
              "name": "from",
              "type": "address"
            },
            {
              "internalType": "address",
              "name": "to",
              "type": "address"
            },
            {
              "internalType": "uint256",
              "name": "value",
              "type": "uint256"
            },
            {
              "internalType": "uint256",
              "name": "gas",
              "type": "uint256"
            },
            {
              "internalType": "uint256",
              "name": "nonce",
              "type": "uint256"
            },
            {
              "internalType": "bytes",
              "name": "data",
              "type": "bytes"
            }
          ],
          "internalType": "struct MinimalForwarder.ForwardRequest",
          "name": "req",
          "type": "tuple"
        },
        {
          "internalType": "bytes",
          "name": "signature",
          "type": "bytes"
        }
      ],
      "name": "execute",
      "outputs": [
        {
          "internalType": "bool",
          "name": "",
          "type": "bool"
        },
        {
          "internalType": "bytes",
          "name": "",
          "type": "bytes"
        }
      ],
      "stateMutability": "payable",
      "type": "function"
    }
  ],
  "bytecode": "0x6101206040523480156200001257600080fd5b506040518060400160405280601081526020017f4d696e696d616c466f72776172646572000000000000000000000000000000008152506040518060400160405280600581526020017f302e302e3100000000000000000000000000000000000000000000000000000081525060008280519060200120905060008280519060200120905060007f8b73c3c69bb8fe3d512ecc4cf759cc79239f7b179b0ffacaa9a75d522b39400f90508260c081815250508160e081815250504660a08181525050620000e78184846200010260201b60201c565b60808181525050806101008181525050505050505062000216565b600083838346306040516020016200011f95949392919062000171565b6040516020818303038152906040528051906020012090509392505050565b6200014981620001ce565b82525050565b6200015a81620001e2565b82525050565b6200016b816200020c565b82525050565b600060a0820190506200018860008301886200014f565b6200019760208301876200014f565b620001a660408301866200014f565b620001b5606083018562000160565b620001c460808301846200013e565b9695505050505050565b6000620001db82620001ec565b9050919050565b6000819050919050565b600073ffffffffffffffffffffffffffffffffffffffff82169050919050565b6000819050919050565b60805160a05160c05160e051610100516115056200025b60003960006105510152600061059301526000610572015260006104fe0152600061052601526115056000f3fe6080604052600436106100345760003560e01c80632d0335ab1461003957806347153f8214610076578063bf5d3bdb146100a7575b600080fd5b34801561004557600080fd5b50610060600480360381019061005b9190610bd3565b6100e4565b60405161006d91906110c9565b60405180910390f35b610090600480360381019061008b9190610bfc565b61012c565b60405161009e929190610ef2565b60405180910390f35b3480156100b357600080fd5b506100ce60048036038101906100c99190610bfc565b610304565b6040516100db9190610ed7565b60405180910390f35b60008060008373ffffffffffffffffffffffffffffffffffffffff1673ffffffffffffffffffffffffffffffffffffffff168152602001908152602001600020549050919050565b6000606061013b858585610304565b61017a576040517f08c379a000000000000000000000000000000000000000000000000000000000815260040161017190611049565b60405180910390fd5b6001856080013561018b919061117e565b6000808760000160208101906101a19190610bd3565b73ffffffffffffffffffffffffffffffffffffffff1673ffffffffffffffffffffffffffffffffffffffff168152602001908152602001600020819055506000808660200160208101906101f59190610bd3565b73ffffffffffffffffffffffffffffffffffffffff1687606001358860400135898060a0019061022591906110e4565b8b60000160208101906102389190610bd3565b60405160200161024a93929190610e5f565b6040516020818303038152906040526040516102669190610e89565b600060405180830381858888f193505050503d80600081146102a4576040519150601f19603f3d011682016040523d82523d6000602084013e6102a9565b606091505b5091509150603f87606001356102bf91906111d4565b5a116102f4577f4e487b7100000000000000000000000000000000000000000000000000000000600052600160045260246000fd5b8181935093505050935093915050565b60008061040d84848080601f016020809104026020016040519081016040528093929190818152602001838380828437600081840152601f19601f820116905080830192505050505050506103ff7fdd8f4b70b0f4393e889bd39128a30628a78b61816a9eb8199759e7a349657e488860000160208101906103869190610bd3565b8960200160208101906103999190610bd3565b8a604001358b606001358c608001358d8060a001906103b891906110e4565b6040516103c6929190610e46565b60405180910390206040516020016103e49796959493929190610f22565b604051602081830303815290604052805190602001206104b9565b6104d390919063ffffffff16565b9050846080013560008087600001602081019061042a9190610bd3565b73ffffffffffffffffffffffffffffffffffffffff1673ffffffffffffffffffffffffffffffffffffffff168152602001908152602001600020541480156104af57508460000160208101906104809190610bd3565b73ffffffffffffffffffffffffffffffffffffffff168173ffffffffffffffffffffffffffffffffffffffff16145b9150509392505050565b60006104cc6104c66104fa565b836105bd565b9050919050565b60008060006104e285856105f0565b915091506104ef81610673565b819250505092915050565b60007f000000000000000000000000000000000000000000000000000000000000000046141561054c577f000000000000000000000000000000000000000000000000000000000000000090506105ba565b6105b77f00000000000000000000000000000000000000000000000000000000000000007f00000000000000000000000000000000000000000000000000000000000000007f00000000000000000000000000000000000000000000000000000000000000006109c4565b90505b90565b600082826040516020016105d2929190610ea0565b60405160208183030381529060405280519060200120905092915050565b6000806041835114156106325760008060006020860151925060408601519150606086015160001a9050610626878285856109fe565b9450945050505061066c565b604083511415610663576000806020850151915060408501519050610658868383610b0b565b93509350505061066c565b60006002915091505b9250929050565b600060048111156106ad577f4e487b7100000000000000000000000000000000000000000000000000000000600052602160045260246000fd5b8160048111156106e6577f4e487b7100000000000000000000000000000000000000000000000000000000600052602160045260246000fd5b14156106f1576109c1565b6001600481111561072b577f4e487b7100000000000000000000000000000000000000000000000000000000600052602160045260246000fd5b816004811115610764577f4e487b7100000000000000000000000000000000000000000000000000000000600052602160045260246000fd5b14156107a5576040517f08c379a000000000000000000000000000000000000000000000000000000000815260040161079c90611029565b60405180910390fd5b600260048111156107df577f4e487b7100000000000000000000000000000000000000000000000000000000600052602160045260246000fd5b816004811115610818577f4e487b7100000000000000000000000000000000000000000000000000000000600052602160045260246000fd5b1415610859576040517f08c379a000000000000000000000000000000000000000000000000000000000815260040161085090611069565b60405180910390fd5b60036004811115610893577f4e487b7100000000000000000000000000000000000000000000000000000000600052602160045260246000fd5b8160048111156108cc577f4e487b7100000000000000000000000000000000000000000000000000000000600052602160045260246000fd5b141561090d576040517f08c379a000000000000000000000000000000000000000000000000000000000815260040161090490611089565b60405180910390fd5b600480811115610946577f4e487b7100000000000000000000000000000000000000000000000000000000600052602160045260246000fd5b81600481111561097f577f4e487b7100000000000000000000000000000000000000000000000000000000600052602160045260246000fd5b14156109c0576040517f08c379a00000000000000000000000000000000000000000000000000000000081526004016109b7906110a9565b60405180910390fd5b5b50565b600083838346306040516020016109df959493929190610f91565b6040516020818303038152906040528051906020012090509392505050565b6000807f7fffffffffffffffffffffffffffffff5d576e7357a4501ddfe92f46681b20a08360001c1115610a39576000600391509150610b02565b601b8560ff1614158015610a515750601c8560ff1614155b15610a63576000600491509150610b02565b600060018787878760405160008152602001604052604051610a889493929190610fe4565b6020604051602081039080840390855afa158015610aaa573d6000803e3d6000fd5b505050602060405103519050600073ffffffffffffffffffffffffffffffffffffffff168173ffffffffffffffffffffffffffffffffffffffff161415610af957600060019250925050610b02565b80600092509250505b94509492505050565b6000806000807f7fffffffffffffffffffffffffffffffffffffffffffffffffffffffffffffff85169150601b8560ff1c019050610b4b878288856109fe565b935093505050935093915050565b600081359050610b68816114b8565b92915050565b60008083601f840112610b8057600080fd5b8235905067ffffffffffffffff811115610b9957600080fd5b602083019150836001820283011115610bb157600080fd5b9250929050565b600060c08284031215610bca57600080fd5b81905092915050565b600060208284031215610be557600080fd5b6000610bf384828501610b59565b91505092915050565b600080600060408486031215610c1157600080fd5b600084013567ffffffffffffffff811115610c2b57600080fd5b610c3786828701610bb8565b935050602084013567ffffffffffffffff811115610c5457600080fd5b610c6086828701610b6e565b92509250509250925092565b610c7581611205565b82525050565b610c8c610c8782611205565b6112a6565b82525050565b610c9b81611217565b82525050565b610caa81611223565b82525050565b610cc1610cbc82611223565b6112b8565b82525050565b6000610cd38385611157565b9350610ce0838584611264565b82840190509392505050565b6000610cf78261113b565b610d018185611146565b9350610d11818560208601611273565b610d1a81611332565b840191505092915050565b6000610d308261113b565b610d3a8185611157565b9350610d4a818560208601611273565b80840191505092915050565b6000610d63601883611162565b9150610d6e82611350565b602082019050919050565b6000610d86603283611162565b9150610d9182611379565b604082019050919050565b6000610da9601f83611162565b9150610db4826113c8565b602082019050919050565b6000610dcc600283611173565b9150610dd7826113f1565b600282019050919050565b6000610def602283611162565b9150610dfa8261141a565b604082019050919050565b6000610e12602283611162565b9150610e1d82611469565b604082019050919050565b610e318161124d565b82525050565b610e4081611257565b82525050565b6000610e53828486610cc7565b91508190509392505050565b6000610e6c828587610cc7565b9150610e788284610c7b565b601482019150819050949350505050565b6000610e958284610d25565b915081905092915050565b6000610eab82610dbf565b9150610eb78285610cb0565b602082019150610ec78284610cb0565b6020820191508190509392505050565b6000602082019050610eec6000830184610c92565b92915050565b6000604082019050610f076000830185610c92565b8181036020830152610f198184610cec565b90509392505050565b600060e082019050610f37600083018a610ca1565b610f446020830189610c6c565b610f516040830188610c6c565b610f5e6060830187610e28565b610f6b6080830186610e28565b610f7860a0830185610e28565b610f8560c0830184610ca1565b98975050505050505050565b600060a082019050610fa66000830188610ca1565b610fb36020830187610ca1565b610fc06040830186610ca1565b610fcd6060830185610e28565b610fda6080830184610c6c565b9695505050505050565b6000608082019050610ff96000830187610ca1565b6110066020830186610e37565b6110136040830185610ca1565b6110206060830184610ca1565b95945050505050565b6000602082019050818103600083015261104281610d56565b9050919050565b6000602082019050818103600083015261106281610d79565b9050919050565b6000602082019050818103600083015261108281610d9c565b9050919050565b600060208201905081810360008301526110a281610de2565b9050919050565b600060208201905081810360008301526110c281610e05565b9050919050565b60006020820190506110de6000830184610e28565b92915050565b600080833560016020038436030381126110fd57600080fd5b80840192508235915067ffffffffffffffff82111561111b57600080fd5b60208301925060018202360383131561113357600080fd5b509250929050565b600081519050919050565b600082825260208201905092915050565b600081905092915050565b600082825260208201905092915050565b600081905092915050565b60006111898261124d565b91506111948361124d565b9250827fffffffffffffffffffffffffffffffffffffffffffffffffffffffffffffffff038211156111c9576111c86112d4565b5b828201905092915050565b60006111df8261124d565b91506111ea8361124d565b9250826111fa576111f9611303565b5b828204905092915050565b60006112108261122d565b9050919050565b60008115159050919050565b6000819050919050565b600073ffffffffffffffffffffffffffffffffffffffff82169050919050565b6000819050919050565b600060ff82169050919050565b82818337600083830152505050565b60005b83811015611291578082015181840152602081019050611276565b838111156112a0576000848401525b50505050565b60006112b1826112c2565b9050919050565b6000819050919050565b60006112cd82611343565b9050919050565b7f4e487b7100000000000000000000000000000000000000000000000000000000600052601160045260246000fd5b7f4e487b7100000000000000000000000000000000000000000000000000000000600052601260045260246000fd5b6000601f19601f8301169050919050565b60008160601b9050919050565b7f45434453413a20696e76616c6964207369676e61747572650000000000000000600082015250565b7f4d696e696d616c466f727761726465723a207369676e617475726520646f657360008201527f206e6f74206d6174636820726571756573740000000000000000000000000000602082015250565b7f45434453413a20696e76616c6964207369676e6174757265206c656e67746800600082015250565b7f1901000000000000000000000000000000000000000000000000000000000000600082015250565b7f45434453413a20696e76616c6964207369676e6174757265202773272076616c60008201527f7565000000000000000000000000000000000000000000000000000000000000602082015250565b7f45434453413a20696e76616c6964207369676e6174757265202776272076616c60008201527f7565000000000000000000000000000000000000000000000000000000000000602082015250565b6114c181611205565b81146114cc57600080fd5b5056fea2646970667358221220e71efdd3ba3ebf13452ad0ebd66f1699c84459a0ec2d39853ffaeac386c9686c64736f6c63430008040033",
  "immutableReferences": {
    "17396": [
      {
        "length": 32,
        "start": 1318
      }
    ],
    "17398": [
      {
        "length": 32,
        "start": 1278
      }
    ],
    "17400": [
      {
        "length": 32,
        "start": 1394
      }
    ],
    "17402": [
      {
        "length": 32,
        "start": 1427
      }
    ],
    "17404": [
      {
        "length": 32,
        "start": 1361
      }
    ]
  },
  "source": "// SPDX-License-Identifier: MIT\n\npragma solidity ^0.8.0;\n\nimport \"../utils/cryptography/ECDSA.sol\";\nimport \"../utils/cryptography/draft-EIP712.sol\";\n\n/**\n * @dev Simple minimal forwarder to be used together with an ERC2771 compatible contract. See {ERC2771Context}.\n */\ncontract MinimalForwarder is EIP712 {\n    using ECDSA for bytes32;\n\n    struct ForwardRequest {\n        address from;\n        address to;\n        uint256 value;\n        uint256 gas;\n        uint256 nonce;\n        bytes data;\n    }\n\n    bytes32 private constant _TYPEHASH =\n        keccak256(\"ForwardRequest(address from,address to,uint256 value,uint256 gas,uint256 nonce,bytes data)\");\n\n    mapping(address => uint256) private _nonces;\n\n    constructor() EIP712(\"MinimalForwarder\", \"0.0.1\") {}\n\n    function getNonce(address from) public view returns (uint256) {\n        return _nonces[from];\n    }\n\n    function verify(ForwardRequest calldata req, bytes calldata signature) public view returns (bool) {\n        address signer = _hashTypedDataV4(\n            keccak256(abi.encode(_TYPEHASH, req.from, req.to, req.value, req.gas, req.nonce, keccak256(req.data)))\n        ).recover(signature);\n        return _nonces[req.from] == req.nonce && signer == req.from;\n    }\n\n    function execute(ForwardRequest calldata req, bytes calldata signature)\n        public\n        payable\n        returns (bool, bytes memory)\n    {\n        require(verify(req, signature), \"MinimalForwarder: signature does not match request\");\n        _nonces[req.from] = req.nonce + 1;\n\n        (bool success, bytes memory returndata) = req.to.call{gas: req.gas, value: req.value}(\n            abi.encodePacked(req.data, req.from)\n        );\n        // Validate that the relayer has sent enough gas for the call.\n        // See https://ronan.eth.link/blog/ethereum-gas-dangers/\n        assert(gasleft() > req.gas / 63);\n\n        return (success, returndata);\n    }\n}\n",
  "sourcePath": "/Users/arnavshah/Desktop/daotemp/contracts/openzeppelin/contracts/metatx/MinimalForwarder.sol",
  "compiler": {
    "name": "solc",
    "version": "0.8.4+commit.c7e474f2.Emscripten.clang"
  },
  "schemaVersion": "3.4.3",
  "updatedAt": "2021-09-07T02:08:19.328Z",
  "devdoc": {
    "details": "Simple minimal forwarder to be used together with an ERC2771 compatible contract. See {ERC2771Context}.",
    "kind": "dev",
    "methods": {},
    "version": 1
  },
  "userdoc": {
    "kind": "user",
    "methods": {},
    "version": 1
  }
}